{
  "_format": "hh-sol-artifact-1",
  "contractName": "ImaginovaPayment",
  "sourceName": "contracts/Imaginova.sol",
  "abi": [
    {
      "inputs": [],
      "stateMutability": "nonpayable",
      "type": "constructor"
    },
    {
      "anonymous": false,
      "inputs": [
        {
          "indexed": true,
          "internalType": "address",
          "name": "buyer",
          "type": "address"
        },
        {
          "indexed": false,
          "internalType": "enum ImaginovaPayment.Package",
          "name": "package",
          "type": "uint8"
        },
        {
          "indexed": false,
          "internalType": "uint256",
          "name": "credits",
          "type": "uint256"
        }
      ],
      "name": "Purchase",
      "type": "event"
    },
    {
      "inputs": [
        {
          "internalType": "address",
          "name": "user",
          "type": "address"
        }
      ],
      "name": "getCredits",
      "outputs": [
        {
          "internalType": "uint256",
          "name": "",
          "type": "uint256"
        }
      ],
      "stateMutability": "view",
      "type": "function"
    },
    {
      "inputs": [],
      "name": "owner",
      "outputs": [
        {
          "internalType": "address",
          "name": "",
          "type": "address"
        }
      ],
      "stateMutability": "view",
      "type": "function"
    },
    {
      "inputs": [
        {
          "internalType": "enum ImaginovaPayment.Package",
          "name": "",
          "type": "uint8"
        }
      ],
      "name": "packages",
      "outputs": [
        {
          "internalType": "uint256",
          "name": "price",
          "type": "uint256"
        },
        {
          "internalType": "uint256",
          "name": "credits",
          "type": "uint256"
        }
      ],
      "stateMutability": "view",
      "type": "function"
    },
    {
      "inputs": [
        {
          "internalType": "enum ImaginovaPayment.Package",
          "name": "packageType",
          "type": "uint8"
        }
      ],
      "name": "purchase",
      "outputs": [],
      "stateMutability": "payable",
      "type": "function"
    },
    {
      "inputs": [
        {
          "internalType": "enum ImaginovaPayment.Package",
          "name": "packageType",
          "type": "uint8"
        },
        {
          "internalType": "uint256",
          "name": "price",
          "type": "uint256"
        },
        {
          "internalType": "uint256",
          "name": "credits",
          "type": "uint256"
        }
      ],
      "name": "updatePackage",
      "outputs": [],
      "stateMutability": "nonpayable",
      "type": "function"
    },
    {
      "inputs": [
        {
          "internalType": "address",
          "name": "",
          "type": "address"
        }
      ],
      "name": "userCredits",
      "outputs": [
        {
          "internalType": "uint256",
          "name": "",
          "type": "uint256"
        }
      ],
      "stateMutability": "view",
      "type": "function"
    },
    {
      "inputs": [],
      "name": "withdraw",
      "outputs": [],
      "stateMutability": "nonpayable",
      "type": "function"
    }
  ],
  "bytecode": "0x608060405234801561001057600080fd5b50336000806101000a81548173ffffffffffffffffffffffffffffffffffffffff021916908373ffffffffffffffffffffffffffffffffffffffff16021790555060405180604001604052806000815260200160148152506001600080600281111561007f5761007e610193565b5b600281111561009157610090610193565b5b815260200190815260200160002060008201518160000155602082015181600101559050506040518060400160405280662386f26fc100008152602001607881525060016000600160028111156100eb576100ea610193565b5b60028111156100fd576100fc610193565b5b81526020019081526020016000206000820151816000015560208201518160010155905050604051806040016040528066b1a2bc2ec5000081526020016107d08152506001600060028081111561015757610156610193565b5b600281111561016957610168610193565b5b815260200190815260200160002060008201518160000155602082015181600101559050506101c2565b7f4e487b7100000000000000000000000000000000000000000000000000000000600052602160045260246000fd5b610a64806101d16000396000f3fe6080604052600436106100705760003560e01c80633ccfd60b1161004e5780633ccfd60b1461010b5780638da5cb5b14610122578063d0a3ce691461014d578063e4a1f4d11461017657610070565b806320babb92146100755780633298df76146100b25780633b66e9f6146100ce575b600080fd5b34801561008157600080fd5b5061009c60048036038101906100979190610663565b6101b4565b6040516100a991906106a9565b60405180910390f35b6100cc60048036038101906100c791906106e9565b6101cc565b005b3480156100da57600080fd5b506100f560048036038101906100f09190610663565b610382565b60405161010291906106a9565b60405180910390f35b34801561011757600080fd5b506101206103cb565b005b34801561012e57600080fd5b506101376104c2565b6040516101449190610725565b60405180910390f35b34801561015957600080fd5b50610174600480360381019061016f919061076c565b6104e6565b005b34801561018257600080fd5b5061019d600480360381019061019891906106e9565b6105dc565b6040516101ab9291906107bf565b60405180910390f35b60026020528060005260406000206000915090505481565b6000600160008360028111156101e5576101e46107e8565b5b60028111156101f7576101f66107e8565b5b8152602001908152602001600020604051806040016040529081600082015481526020016001820154815250509050806000015134101561026d576040517f08c379a000000000000000000000000000000000000000000000000000000000815260040161026490610874565b60405180910390fd5b8060200151600260003373ffffffffffffffffffffffffffffffffffffffff1673ffffffffffffffffffffffffffffffffffffffff16815260200190815260200160002060008282546102c091906108c3565b925050819055503373ffffffffffffffffffffffffffffffffffffffff167f86ca388bddbd052fddab95414057fccc7d306c3af44b103dad7efab306b06ee083836020015160405161031392919061093f565b60405180910390a2806000015134111561037e573373ffffffffffffffffffffffffffffffffffffffff166108fc8260000151346103519190610968565b9081150290604051600060405180830381858888f1935050505015801561037c573d6000803e3d6000fd5b505b5050565b6000600260008373ffffffffffffffffffffffffffffffffffffffff1673ffffffffffffffffffffffffffffffffffffffff168152602001908152602001600020549050919050565b60008054906101000a900473ffffffffffffffffffffffffffffffffffffffff1673ffffffffffffffffffffffffffffffffffffffff163373ffffffffffffffffffffffffffffffffffffffff1614610459576040517f08c379a000000000000000000000000000000000000000000000000000000000815260040161045090610a0e565b60405180910390fd5b60008054906101000a900473ffffffffffffffffffffffffffffffffffffffff1673ffffffffffffffffffffffffffffffffffffffff166108fc479081150290604051600060405180830381858888f193505050501580156104bf573d6000803e3d6000fd5b50565b60008054906101000a900473ffffffffffffffffffffffffffffffffffffffff1681565b60008054906101000a900473ffffffffffffffffffffffffffffffffffffffff1673ffffffffffffffffffffffffffffffffffffffff163373ffffffffffffffffffffffffffffffffffffffff1614610574576040517f08c379a000000000000000000000000000000000000000000000000000000000815260040161056b90610a0e565b60405180910390fd5b604051806040016040528083815260200182815250600160008560028111156105a05761059f6107e8565b5b60028111156105b2576105b16107e8565b5b81526020019081526020016000206000820151816000015560208201518160010155905050505050565b60016020528060005260406000206000915090508060000154908060010154905082565b600080fd5b600073ffffffffffffffffffffffffffffffffffffffff82169050919050565b600061063082610605565b9050919050565b61064081610625565b811461064b57600080fd5b50565b60008135905061065d81610637565b92915050565b60006020828403121561067957610678610600565b5b60006106878482850161064e565b91505092915050565b6000819050919050565b6106a381610690565b82525050565b60006020820190506106be600083018461069a565b92915050565b600381106106d157600080fd5b50565b6000813590506106e3816106c4565b92915050565b6000602082840312156106ff576106fe610600565b5b600061070d848285016106d4565b91505092915050565b61071f81610625565b82525050565b600060208201905061073a6000830184610716565b92915050565b61074981610690565b811461075457600080fd5b50565b60008135905061076681610740565b92915050565b60008060006060848603121561078557610784610600565b5b6000610793868287016106d4565b93505060206107a486828701610757565b92505060406107b586828701610757565b9150509250925092565b60006040820190506107d4600083018561069a565b6107e1602083018461069a565b9392505050565b7f4e487b7100000000000000000000000000000000000000000000000000000000600052602160045260246000fd5b600082825260208201905092915050565b7f496e73756666696369656e74207061796d656e74000000000000000000000000600082015250565b600061085e601483610817565b915061086982610828565b602082019050919050565b6000602082019050818103600083015261088d81610851565b9050919050565b7f4e487b7100000000000000000000000000000000000000000000000000000000600052601160045260246000fd5b60006108ce82610690565b91506108d983610690565b92508282019050808211156108f1576108f0610894565b5b92915050565b60038110610908576109076107e8565b5b50565b6000819050610919826108f7565b919050565b60006109298261090b565b9050919050565b6109398161091e565b82525050565b60006040820190506109546000830185610930565b610961602083018461069a565b9392505050565b600061097382610690565b915061097e83610690565b925082820390508181111561099657610995610894565b5b92915050565b7f4f6e6c79206f776e65722063616e20706572666f726d2074686973206163746960008201527f6f6e000000000000000000000000000000000000000000000000000000000000602082015250565b60006109f8602283610817565b9150610a038261099c565b604082019050919050565b60006020820190508181036000830152610a27816109eb565b905091905056fea2646970667358221220c0e921a3c92dd3b3bc5389cf2c092065702137ba8b1b31f6dba6fe1f3d127f5e64736f6c63430008180033",
  "linkReferences": {},
  "deployedLinkReferences": {}
}