{
  "@chainlink/contracts/src/v0.8/functions/v1_0_0/libraries/FunctionsRequest.sol": {
    "FunctionsRequest": {
      "abi": [
        {
          "inputs": [],
          "name": "EmptyArgs",
          "type": "error"
        },
        {
          "inputs": [],
          "name": "EmptySecrets",
          "type": "error"
        },
        {
          "inputs": [],
          "name": "EmptySource",
          "type": "error"
        },
        {
          "inputs": [],
          "name": "NoInlineSecrets",
          "type": "error"
        },
        {
          "inputs": [],
          "name": "REQUEST_DATA_VERSION",
          "outputs": [
            {
              "internalType": "uint16",
              "name": "",
              "type": "uint16"
            }
          ],
          "stateMutability": "view",
          "type": "function"
        }
      ],
      "evm": {
        "bytecode": {
          "linkReferences": {},
          "object": "60c1610052600b82828239805160001a607314610045577f4e487b7100000000000000000000000000000000000000000000000000000000600052600060045260246000fd5b30600052607381538281f3fe730000000000000000000000000000000000000000301460806040526004361060335760003560e01c80635d641dfc146038575b600080fd5b603e6052565b604051604991906072565b60405180910390f35b600181565b600061ffff82169050919050565b606c816057565b82525050565b6000602082019050608560008301846065565b9291505056fea2646970667358221220b0d0ba426c2678e4160cc498f9fed76d72fc0635d804d1be7a60f4ef7f3d118b64736f6c63430008180033",
          "opcodes": "PUSH1 0xC1 PUSH2 0x52 PUSH1 0xB DUP3 DUP3 DUP3 CODECOPY DUP1 MLOAD PUSH1 0x0 BYTE PUSH1 0x73 EQ PUSH2 0x45 JUMPI PUSH32 0x4E487B7100000000000000000000000000000000000000000000000000000000 PUSH1 0x0 MSTORE PUSH1 0x0 PUSH1 0x4 MSTORE PUSH1 0x24 PUSH1 0x0 REVERT JUMPDEST ADDRESS PUSH1 0x0 MSTORE PUSH1 0x73 DUP2 MSTORE8 DUP3 DUP2 RETURN INVALID PUSH20 0x0 ADDRESS EQ PUSH1 0x80 PUSH1 0x40 MSTORE PUSH1 0x4 CALLDATASIZE LT PUSH1 0x33 JUMPI PUSH1 0x0 CALLDATALOAD PUSH1 0xE0 SHR DUP1 PUSH4 0x5D641DFC EQ PUSH1 0x38 JUMPI JUMPDEST PUSH1 0x0 DUP1 REVERT JUMPDEST PUSH1 0x3E PUSH1 0x52 JUMP JUMPDEST PUSH1 0x40 MLOAD PUSH1 0x49 SWAP2 SWAP1 PUSH1 0x72 JUMP JUMPDEST PUSH1 0x40 MLOAD DUP1 SWAP2 SUB SWAP1 RETURN JUMPDEST PUSH1 0x1 DUP2 JUMP JUMPDEST PUSH1 0x0 PUSH2 0xFFFF DUP3 AND SWAP1 POP SWAP2 SWAP1 POP JUMP JUMPDEST PUSH1 0x6C DUP2 PUSH1 0x57 JUMP JUMPDEST DUP3 MSTORE POP POP JUMP JUMPDEST PUSH1 0x0 PUSH1 0x20 DUP3 ADD SWAP1 POP PUSH1 0x85 PUSH1 0x0 DUP4 ADD DUP5 PUSH1 0x65 JUMP JUMPDEST SWAP3 SWAP2 POP POP JUMP INVALID LOG2 PUSH5 0x6970667358 0x22 SLT KECCAK256 0xB0 0xD0 0xBA TIMESTAMP PUSH13 0x2678E4160CC498F9FED76D72FC MOD CALLDATALOAD 0xD8 DIV 0xD1 0xBE PUSH27 0x60F4EF7F3D118B64736F6C63430008180033000000000000000000 "
        },
        "methodIdentifiers": {
          "REQUEST_DATA_VERSION()": "5d641dfc"
        }
      }
    }
  }
}